:1000000000308A000428000003081F39830083168B
:100010008E15073083129F008313A101A201A30153
:10002000A401A501831681130830F8000638831255
:100030009200FF30831692008611831286110C30D5
:10004000970020309500831606108312061483163D
:10005000861083128610831606158312061D352816
:100060002108073C0318A10A43282108083C031D66
:10007000422825087F3C031C41281030A50725088D
:1000800095004228A101831606168312061E4D28EC
:100090002208073C0318A20A5A282208083C031D1C
:1000A0005928A508031958281030A50225089500DD
:1000B0005928A201831686168312861E64282308F7
:1000C000073C0318A30A71282308083C031D702865
:1000D0008316061083120614831686108312861068
:1000E000A301831606178312061F7B282408073CEA
:1000F0000318A40A88282408083C031D87288316AF
:100100008610831286148316061083120610A4012B
:080110002B280030F800630009
:02400E00503F21
:00000001FF
;PIC16F628A
;CRC=2955  CREATED="18-Feb-23 15:22"
